{
  "_format": "hh-sol-artifact-1",
  "contractName": "Evoting",
  "sourceName": "contracts/Evoting.sol",
  "abi": [
    {
      "inputs": [
        {
          "internalType": "string",
          "name": "_name",
          "type": "string"
        },
        {
          "internalType": "string",
          "name": "_phone",
          "type": "string"
        },
        {
          "internalType": "string",
          "name": "_timestamp",
          "type": "string"
        }
      ],
      "name": "addUser",
      "outputs": [],
      "stateMutability": "nonpayable",
      "type": "function"
    },
    {
      "inputs": [
        {
          "internalType": "uint256",
          "name": "",
          "type": "uint256"
        }
      ],
      "name": "allAddress",
      "outputs": [
        {
          "internalType": "address",
          "name": "",
          "type": "address"
        }
      ],
      "stateMutability": "view",
      "type": "function"
    },
    {
      "inputs": [
        {
          "internalType": "uint256",
          "name": "",
          "type": "uint256"
        }
      ],
      "name": "allPolls",
      "outputs": [
        {
          "internalType": "uint256",
          "name": "pollid",
          "type": "uint256"
        },
        {
          "internalType": "address",
          "name": "owner",
          "type": "address"
        },
        {
          "internalType": "string",
          "name": "title",
          "type": "string"
        },
        {
          "internalType": "string",
          "name": "desc",
          "type": "string"
        },
        {
          "internalType": "string",
          "name": "startDate",
          "type": "string"
        },
        {
          "internalType": "string",
          "name": "endDate",
          "type": "string"
        },
        {
          "internalType": "string",
          "name": "options",
          "type": "string"
        },
        {
          "internalType": "string",
          "name": "optionValue",
          "type": "string"
        },
        {
          "internalType": "uint256",
          "name": "voteCount",
          "type": "uint256"
        }
      ],
      "stateMutability": "view",
      "type": "function"
    },
    {
      "inputs": [
        {
          "internalType": "address",
          "name": "",
          "type": "address"
        }
      ],
      "name": "allUser",
      "outputs": [
        {
          "internalType": "address",
          "name": "accountAddress",
          "type": "address"
        },
        {
          "internalType": "string",
          "name": "name",
          "type": "string"
        },
        {
          "internalType": "string",
          "name": "phone",
          "type": "string"
        },
        {
          "internalType": "string",
          "name": "timeOfRegistry",
          "type": "string"
        },
        {
          "internalType": "uint256",
          "name": "tokens",
          "type": "uint256"
        }
      ],
      "stateMutability": "view",
      "type": "function"
    },
    {
      "inputs": [
        {
          "internalType": "uint256",
          "name": "_tokenCount",
          "type": "uint256"
        },
        {
          "internalType": "string",
          "name": "_time",
          "type": "string"
        }
      ],
      "name": "buyToken",
      "outputs": [],
      "stateMutability": "payable",
      "type": "function"
    },
    {
      "inputs": [
        {
          "internalType": "string",
          "name": "_title",
          "type": "string"
        },
        {
          "internalType": "string",
          "name": "_description",
          "type": "string"
        },
        {
          "internalType": "string",
          "name": "_startDate",
          "type": "string"
        },
        {
          "internalType": "string",
          "name": "_endDate",
          "type": "string"
        },
        {
          "internalType": "string",
          "name": "_options",
          "type": "string"
        },
        {
          "internalType": "string",
          "name": "_optionValue",
          "type": "string"
        }
      ],
      "name": "createPoll",
      "outputs": [],
      "stateMutability": "nonpayable",
      "type": "function"
    },
    {
      "inputs": [],
      "name": "getAllTransactions",
      "outputs": [
        {
          "components": [
            {
              "internalType": "uint256",
              "name": "tokenId",
              "type": "uint256"
            },
            {
              "internalType": "address",
              "name": "owner",
              "type": "address"
            },
            {
              "internalType": "string",
              "name": "timeOfCreation",
              "type": "string"
            }
          ],
          "internalType": "struct Evoting.Token[]",
          "name": "",
          "type": "tuple[]"
        }
      ],
      "stateMutability": "view",
      "type": "function"
    },
    {
      "inputs": [
        {
          "internalType": "uint256",
          "name": "_pollId",
          "type": "uint256"
        },
        {
          "internalType": "string",
          "name": "_optionValue",
          "type": "string"
        }
      ],
      "name": "makeVote",
      "outputs": [],
      "stateMutability": "nonpayable",
      "type": "function"
    },
    {
      "inputs": [],
      "name": "pollsCounter",
      "outputs": [
        {
          "internalType": "uint256",
          "name": "",
          "type": "uint256"
        }
      ],
      "stateMutability": "view",
      "type": "function"
    },
    {
      "inputs": [],
      "name": "tokenCounter",
      "outputs": [
        {
          "internalType": "uint256",
          "name": "",
          "type": "uint256"
        }
      ],
      "stateMutability": "view",
      "type": "function"
    },
    {
      "inputs": [
        {
          "internalType": "address",
          "name": "",
          "type": "address"
        }
      ],
      "name": "userExist",
      "outputs": [
        {
          "internalType": "bool",
          "name": "",
          "type": "bool"
        }
      ],
      "stateMutability": "view",
      "type": "function"
    },
    {
      "inputs": [],
      "name": "usersCounter",
      "outputs": [
        {
          "internalType": "uint256",
          "name": "",
          "type": "uint256"
        }
      ],
      "stateMutability": "view",
      "type": "function"
    }
  ],
  "bytecode": "0x608060405234801561001057600080fd5b506126d1806100206000396000f3fe6080604052600436106100a75760003560e01c806395c5fed41161006457806395c5fed4146101cd578063a8cef27a146101f6578063ab7e7cf614610233578063bcd3c52514610270578063d082e38114610299578063d67b1b99146102c4576100a7565b806325274a26146100ac57806327506f53146100d557806348cce63514610100578063637cd8741461012b5780638e2f2deb14610170578063925e15ec1461018c575b600080fd5b3480156100b857600080fd5b506100d360048036038101906100ce9190611a84565b6102ef565b005b3480156100e157600080fd5b506100ea610464565b6040516100f79190611da4565b60405180910390f35b34801561010c57600080fd5b506101156105b5565b6040516101229190611dd5565b60405180910390f35b34801561013757600080fd5b50610152600480360381019061014d9190611e1c565b6105bb565b60405161016799989796959493929190611ea2565b60405180910390f35b61018a60048036038101906101859190611f59565b610959565b005b34801561019857600080fd5b506101b360048036038101906101ae9190611fe1565b610d5a565b6040516101c495949392919061200e565b60405180910390f35b3480156101d957600080fd5b506101f460048036038101906101ef9190612076565b610f48565b005b34801561020257600080fd5b5061021d60048036038101906102189190611e1c565b61116e565b60405161022a919061211d565b60405180910390f35b34801561023f57600080fd5b5061025a60048036038101906102559190611fe1565b6111a1565b6040516102679190612153565b60405180910390f35b34801561027c57600080fd5b5061029760048036038101906102929190611f59565b6111c1565b005b3480156102a557600080fd5b506102ae611817565b6040516102bb9190611dd5565b60405180910390f35b3480156102d057600080fd5b506102d961181d565b6040516102e69190611dd5565b60405180910390f35b6000808154809291906103019061219d565b9190505550600060405180610120016040528060005481526020013373ffffffffffffffffffffffffffffffffffffffff168152602001888152602001878152602001868152602001858152602001848152602001838152602001600081525090508060036000805481526020019081526020016000206000820151816000015560208201518160010160006101000a81548173ffffffffffffffffffffffffffffffffffffffff021916908373ffffffffffffffffffffffffffffffffffffffff16021790555060408201518160020190816103de91906123f1565b5060608201518160030190816103f491906123f1565b50608082015181600401908161040a91906123f1565b5060a082015181600501908161042091906123f1565b5060c082015181600601908161043691906123f1565b5060e082015181600701908161044c91906123f1565b50610100820151816008015590505050505050505050565b60606007805480602002602001604051908101604052809291908181526020016000905b828210156105ac5783829060005260206000209060030201604051806060016040529081600082015481526020016001820160009054906101000a900473ffffffffffffffffffffffffffffffffffffffff1673ffffffffffffffffffffffffffffffffffffffff1673ffffffffffffffffffffffffffffffffffffffff16815260200160028201805461051b90612214565b80601f016020809104026020016040519081016040528092919081815260200182805461054790612214565b80156105945780601f1061056957610100808354040283529160200191610594565b820191906000526020600020905b81548152906001019060200180831161057757829003601f168201915b50505050508152505081526020019060010190610488565b50505050905090565b60005481565b60036020528060005260406000206000915090508060000154908060010160009054906101000a900473ffffffffffffffffffffffffffffffffffffffff169080600201805461060a90612214565b80601f016020809104026020016040519081016040528092919081815260200182805461063690612214565b80156106835780601f1061065857610100808354040283529160200191610683565b820191906000526020600020905b81548152906001019060200180831161066657829003601f168201915b50505050509080600301805461069890612214565b80601f01602080910402602001604051908101604052809291908181526020018280546106c490612214565b80156107115780601f106106e657610100808354040283529160200191610711565b820191906000526020600020905b8154815290600101906020018083116106f457829003601f168201915b50505050509080600401805461072690612214565b80601f016020809104026020016040519081016040528092919081815260200182805461075290612214565b801561079f5780601f106107745761010080835404028352916020019161079f565b820191906000526020600020905b81548152906001019060200180831161078257829003601f168201915b5050505050908060050180546107b490612214565b80601f01602080910402602001604051908101604052809291908181526020018280546107e090612214565b801561082d5780601f106108025761010080835404028352916020019161082d565b820191906000526020600020905b81548152906001019060200180831161081057829003601f168201915b50505050509080600601805461084290612214565b80601f016020809104026020016040519081016040528092919081815260200182805461086e90612214565b80156108bb5780601f10610890576101008083540402835291602001916108bb565b820191906000526020600020905b81548152906001019060200180831161089e57829003601f168201915b5050505050908060070180546108d090612214565b80601f01602080910402602001604051908101604052809291908181526020018280546108fc90612214565b80156109495780601f1061091e57610100808354040283529160200191610949565b820191906000526020600020905b81548152906001019060200180831161092c57829003601f168201915b5050505050908060080154905089565b600073ffffffffffffffffffffffffffffffffffffffff163373ffffffffffffffffffffffffffffffffffffffff160361099257600080fd5b600460003373ffffffffffffffffffffffffffffffffffffffff1673ffffffffffffffffffffffffffffffffffffffff16815260200190815260200160002060009054906101000a900460ff16610a1e576040517f08c379a0000000000000000000000000000000000000000000000000000000008152600401610a159061250f565b60405180910390fd5b600a82610a2b919061255e565b341015610a6d576040517f08c379a0000000000000000000000000000000000000000000000000000000008152600401610a64906125db565b60405180910390fd5b600073b641b4f1795a4bfa2cc7056e08cfb2b19983124890508073ffffffffffffffffffffffffffffffffffffffff166108fc349081150290604051600060405180830381858888f19350505050158015610acc573d6000803e3d6000fd5b50610ad78383611823565b6000600660003373ffffffffffffffffffffffffffffffffffffffff1673ffffffffffffffffffffffffffffffffffffffff1681526020019081526020016000206040518060a00160405290816000820160009054906101000a900473ffffffffffffffffffffffffffffffffffffffff1673ffffffffffffffffffffffffffffffffffffffff1673ffffffffffffffffffffffffffffffffffffffff168152602001600182018054610b8990612214565b80601f0160208091040260200160405190810160405280929190818152602001828054610bb590612214565b8015610c025780601f10610bd757610100808354040283529160200191610c02565b820191906000526020600020905b815481529060010190602001808311610be557829003601f168201915b50505050508152602001600282018054610c1b90612214565b80601f0160208091040260200160405190810160405280929190818152602001828054610c4790612214565b8015610c945780601f10610c6957610100808354040283529160200191610c94565b820191906000526020600020905b815481529060010190602001808311610c7757829003601f168201915b50505050508152602001600382018054610cad90612214565b80601f0160208091040260200160405190810160405280929190818152602001828054610cd990612214565b8015610d265780601f10610cfb57610100808354040283529160200191610d26565b820191906000526020600020905b815481529060010190602001808311610d0957829003601f168201915b5050505050815260200160048201548152505090508381608001818151610d4d91906125fb565b9150818152505050505050565b60066020528060005260406000206000915090508060000160009054906101000a900473ffffffffffffffffffffffffffffffffffffffff1690806001018054610da390612214565b80601f0160208091040260200160405190810160405280929190818152602001828054610dcf90612214565b8015610e1c5780601f10610df157610100808354040283529160200191610e1c565b820191906000526020600020905b815481529060010190602001808311610dff57829003601f168201915b505050505090806002018054610e3190612214565b80601f0160208091040260200160405190810160405280929190818152602001828054610e5d90612214565b8015610eaa5780601f10610e7f57610100808354040283529160200191610eaa565b820191906000526020600020905b815481529060010190602001808311610e8d57829003601f168201915b505050505090806003018054610ebf90612214565b80601f0160208091040260200160405190810160405280929190818152602001828054610eeb90612214565b8015610f385780601f10610f0d57610100808354040283529160200191610f38565b820191906000526020600020905b815481529060010190602001808311610f1b57829003601f168201915b5050505050908060040154905085565b600073ffffffffffffffffffffffffffffffffffffffff163373ffffffffffffffffffffffffffffffffffffffff1603610f8157600080fd5b60016000815480929190610f949061219d565b919050555060006040518060a001604052803373ffffffffffffffffffffffffffffffffffffffff168152602001858152602001848152602001838152602001600a8152509050610fe6600a83611823565b80600660003373ffffffffffffffffffffffffffffffffffffffff1673ffffffffffffffffffffffffffffffffffffffff16815260200190815260200160002060008201518160000160006101000a81548173ffffffffffffffffffffffffffffffffffffffff021916908373ffffffffffffffffffffffffffffffffffffffff160217905550602082015181600101908161108291906123f1565b50604082015181600201908161109891906123f1565b5060608201518160030190816110ae91906123f1565b50608082015181600401559050506001600460003373ffffffffffffffffffffffffffffffffffffffff1673ffffffffffffffffffffffffffffffffffffffff16815260200190815260200160002060006101000a81548160ff0219169083151502179055503360056000600154815260200190815260200160002060006101000a81548173ffffffffffffffffffffffffffffffffffffffff021916908373ffffffffffffffffffffffffffffffffffffffff16021790555050505050565b60056020528060005260406000206000915054906101000a900473ffffffffffffffffffffffffffffffffffffffff1681565b60046020528060005260406000206000915054906101000a900460ff1681565b600073ffffffffffffffffffffffffffffffffffffffff163373ffffffffffffffffffffffffffffffffffffffff16036111fa57600080fd5b600460003373ffffffffffffffffffffffffffffffffffffffff1673ffffffffffffffffffffffffffffffffffffffff16815260200190815260200160002060009054906101000a900460ff16611286576040517f08c379a000000000000000000000000000000000000000000000000000000000815260040161127d9061250f565b60405180910390fd5b60006003600084815260200190815260200160002060405180610120016040529081600082015481526020016001820160009054906101000a900473ffffffffffffffffffffffffffffffffffffffff1673ffffffffffffffffffffffffffffffffffffffff1673ffffffffffffffffffffffffffffffffffffffff16815260200160028201805461131790612214565b80601f016020809104026020016040519081016040528092919081815260200182805461134390612214565b80156113905780601f1061136557610100808354040283529160200191611390565b820191906000526020600020905b81548152906001019060200180831161137357829003601f168201915b505050505081526020016003820180546113a990612214565b80601f01602080910402602001604051908101604052809291908181526020018280546113d590612214565b80156114225780601f106113f757610100808354040283529160200191611422565b820191906000526020600020905b81548152906001019060200180831161140557829003601f168201915b5050505050815260200160048201805461143b90612214565b80601f016020809104026020016040519081016040528092919081815260200182805461146790612214565b80156114b45780601f10611489576101008083540402835291602001916114b4565b820191906000526020600020905b81548152906001019060200180831161149757829003601f168201915b505050505081526020016005820180546114cd90612214565b80601f01602080910402602001604051908101604052809291908181526020018280546114f990612214565b80156115465780601f1061151b57610100808354040283529160200191611546565b820191906000526020600020905b81548152906001019060200180831161152957829003601f168201915b5050505050815260200160068201805461155f90612214565b80601f016020809104026020016040519081016040528092919081815260200182805461158b90612214565b80156115d85780601f106115ad576101008083540402835291602001916115d8565b820191906000526020600020905b8154815290600101906020018083116115bb57829003601f168201915b505050505081526020016007820180546115f190612214565b80601f016020809104026020016040519081016040528092919081815260200182805461161d90612214565b801561166a5780601f1061163f5761010080835404028352916020019161166a565b820191906000526020600020905b81548152906001019060200180831161164d57829003601f168201915b5050505050815260200160088201548152505090506000816020015190503373ffffffffffffffffffffffffffffffffffffffff168173ffffffffffffffffffffffffffffffffffffffff16036116f6576040517f08c379a00000000000000000000000000000000000000000000000000000000081526004016116ed9061267b565b60405180910390fd5b828260e001819052506001826101000181815161171391906125fb565b9150818152505081600360008681526020019081526020016000206000820151816000015560208201518160010160006101000a81548173ffffffffffffffffffffffffffffffffffffffff021916908373ffffffffffffffffffffffffffffffffffffffff160217905550604082015181600201908161179491906123f1565b5060608201518160030190816117aa91906123f1565b5060808201518160040190816117c091906123f1565b5060a08201518160050190816117d691906123f1565b5060c08201518160060190816117ec91906123f1565b5060e082015181600701908161180291906123f1565b50610100820151816008015590505050505050565b60025481565b60015481565b60005b82811161192557600260008154809291906118409061219d565b91905055506000604051806060016040528060025481526020013373ffffffffffffffffffffffffffffffffffffffff16815260200184815250905060078190806001815401808255809150506001900390600052602060002090600302016000909190919091506000820151816000015560208201518160010160006101000a81548173ffffffffffffffffffffffffffffffffffffffff021916908373ffffffffffffffffffffffffffffffffffffffff160217905550604082015181600201908161190e91906123f1565b50505050808061191d9061219d565b915050611826565b505050565b6000604051905090565b600080fd5b600080fd5b600080fd5b600080fd5b6000601f19601f8301169050919050565b7f4e487b7100000000000000000000000000000000000000000000000000000000600052604160045260246000fd5b61199182611948565b810181811067ffffffffffffffff821117156119b0576119af611959565b5b80604052505050565b60006119c361192a565b90506119cf8282611988565b919050565b600067ffffffffffffffff8211156119ef576119ee611959565b5b6119f882611948565b9050602081019050919050565b82818337600083830152505050565b6000611a27611a22846119d4565b6119b9565b905082815260208101848484011115611a4357611a42611943565b5b611a4e848285611a05565b509392505050565b600082601f830112611a6b57611a6a61193e565b5b8135611a7b848260208601611a14565b91505092915050565b60008060008060008060c08789031215611aa157611aa0611934565b5b600087013567ffffffffffffffff811115611abf57611abe611939565b5b611acb89828a01611a56565b965050602087013567ffffffffffffffff811115611aec57611aeb611939565b5b611af889828a01611a56565b955050604087013567ffffffffffffffff811115611b1957611b18611939565b5b611b2589828a01611a56565b945050606087013567ffffffffffffffff811115611b4657611b45611939565b5b611b5289828a01611a56565b935050608087013567ffffffffffffffff811115611b7357611b72611939565b5b611b7f89828a01611a56565b92505060a087013567ffffffffffffffff811115611ba057611b9f611939565b5b611bac89828a01611a56565b9150509295509295509295565b600081519050919050565b600082825260208201905092915050565b6000819050602082019050919050565b6000819050919050565b611bf881611be5565b82525050565b600073ffffffffffffffffffffffffffffffffffffffff82169050919050565b6000611c2982611bfe565b9050919050565b611c3981611c1e565b82525050565b600081519050919050565b600082825260208201905092915050565b60005b83811015611c79578082015181840152602081019050611c5e565b60008484015250505050565b6000611c9082611c3f565b611c9a8185611c4a565b9350611caa818560208601611c5b565b611cb381611948565b840191505092915050565b6000606083016000830151611cd66000860182611bef565b506020830151611ce96020860182611c30565b5060408301518482036040860152611d018282611c85565b9150508091505092915050565b6000611d1a8383611cbe565b905092915050565b6000602082019050919050565b6000611d3a82611bb9565b611d448185611bc4565b935083602082028501611d5685611bd5565b8060005b85811015611d925784840389528151611d738582611d0e565b9450611d7e83611d22565b925060208a01995050600181019050611d5a565b50829750879550505050505092915050565b60006020820190508181036000830152611dbe8184611d2f565b905092915050565b611dcf81611be5565b82525050565b6000602082019050611dea6000830184611dc6565b92915050565b611df981611be5565b8114611e0457600080fd5b50565b600081359050611e1681611df0565b92915050565b600060208284031215611e3257611e31611934565b5b6000611e4084828501611e07565b91505092915050565b611e5281611c1e565b82525050565b600082825260208201905092915050565b6000611e7482611c3f565b611e7e8185611e58565b9350611e8e818560208601611c5b565b611e9781611948565b840191505092915050565b600061012082019050611eb8600083018c611dc6565b611ec5602083018b611e49565b8181036040830152611ed7818a611e69565b90508181036060830152611eeb8189611e69565b90508181036080830152611eff8188611e69565b905081810360a0830152611f138187611e69565b905081810360c0830152611f278186611e69565b905081810360e0830152611f3b8185611e69565b9050611f4b610100830184611dc6565b9a9950505050505050505050565b60008060408385031215611f7057611f6f611934565b5b6000611f7e85828601611e07565b925050602083013567ffffffffffffffff811115611f9f57611f9e611939565b5b611fab85828601611a56565b9150509250929050565b611fbe81611c1e565b8114611fc957600080fd5b50565b600081359050611fdb81611fb5565b92915050565b600060208284031215611ff757611ff6611934565b5b600061200584828501611fcc565b91505092915050565b600060a0820190506120236000830188611e49565b81810360208301526120358187611e69565b905081810360408301526120498186611e69565b9050818103606083015261205d8185611e69565b905061206c6080830184611dc6565b9695505050505050565b60008060006060848603121561208f5761208e611934565b5b600084013567ffffffffffffffff8111156120ad576120ac611939565b5b6120b986828701611a56565b935050602084013567ffffffffffffffff8111156120da576120d9611939565b5b6120e686828701611a56565b925050604084013567ffffffffffffffff81111561210757612106611939565b5b61211386828701611a56565b9150509250925092565b60006020820190506121326000830184611e49565b92915050565b60008115159050919050565b61214d81612138565b82525050565b60006020820190506121686000830184612144565b92915050565b7f4e487b7100000000000000000000000000000000000000000000000000000000600052601160045260246000fd5b60006121a882611be5565b91507fffffffffffffffffffffffffffffffffffffffffffffffffffffffffffffffff82036121da576121d961216e565b5b600182019050919050565b7f4e487b7100000000000000000000000000000000000000000000000000000000600052602260045260246000fd5b6000600282049050600182168061222c57607f821691505b60208210810361223f5761223e6121e5565b5b50919050565b60008190508160005260206000209050919050565b60006020601f8301049050919050565b600082821b905092915050565b6000600883026122a77fffffffffffffffffffffffffffffffffffffffffffffffffffffffffffffffff8261226a565b6122b1868361226a565b95508019841693508086168417925050509392505050565b6000819050919050565b60006122ee6122e96122e484611be5565b6122c9565b611be5565b9050919050565b6000819050919050565b612308836122d3565b61231c612314826122f5565b848454612277565b825550505050565b600090565b612331612324565b61233c8184846122ff565b505050565b5b8181101561236057612355600082612329565b600181019050612342565b5050565b601f8211156123a55761237681612245565b61237f8461225a565b8101602085101561238e578190505b6123a261239a8561225a565b830182612341565b50505b505050565b600082821c905092915050565b60006123c8600019846008026123aa565b1980831691505092915050565b60006123e183836123b7565b9150826002028217905092915050565b6123fa82611c3f565b67ffffffffffffffff81111561241357612412611959565b5b61241d8254612214565b612428828285612364565b600060209050601f83116001811461245b5760008415612449578287015190505b61245385826123d5565b8655506124bb565b601f19841661246986612245565b60005b828110156124915784890151825560018201915060208501945060208101905061246c565b868310156124ae57848901516124aa601f8916826123b7565b8355505b6001600288020188555050505b505050505050565b7f4e6f7420417574686f72697a6564000000000000000000000000000000000000600082015250565b60006124f9600e83611e58565b9150612504826124c3565b602082019050919050565b60006020820190508181036000830152612528816124ec565b9050919050565b7f4e487b7100000000000000000000000000000000000000000000000000000000600052601260045260246000fd5b600061256982611be5565b915061257483611be5565b9250826125845761258361252f565b5b828204905092915050565b7f4e6f7420656e6f75676820657468657273000000000000000000000000000000600082015250565b60006125c5601183611e58565b91506125d08261258f565b602082019050919050565b600060208201905081810360008301526125f4816125b8565b9050919050565b600061260682611be5565b915061261183611be5565b92508282019050808211156126295761262861216e565b5b92915050565b7f43726561746f72206f6620706f6c6c2063616e277420766f7465000000000000600082015250565b6000612665601a83611e58565b91506126708261262f565b602082019050919050565b6000602082019050818103600083015261269481612658565b905091905056fea26469706673582212207034f71118615392b0f4f43175b4ce4302ddc4ffa47800d25689ba41bf3905d664736f6c63430008110033",
  "linkReferences": {},
  "deployedLinkReferences": {}
}