{
  "_format": "hh-sol-artifact-1",
  "contractName": "Evoting",
  "sourceName": "contracts/Evoting.sol",
  "abi": [
    {
      "inputs": [
        {
          "internalType": "string",
          "name": "_name",
          "type": "string"
        },
        {
          "internalType": "string",
          "name": "_phone",
          "type": "string"
        },
        {
          "internalType": "string",
          "name": "_timestamp",
          "type": "string"
        }
      ],
      "name": "addUser",
      "outputs": [],
      "stateMutability": "nonpayable",
      "type": "function"
    },
    {
      "inputs": [
        {
          "internalType": "uint256",
          "name": "",
          "type": "uint256"
        }
      ],
      "name": "allPolls",
      "outputs": [
        {
          "internalType": "uint256",
          "name": "pollid",
          "type": "uint256"
        },
        {
          "internalType": "address",
          "name": "owner",
          "type": "address"
        },
        {
          "internalType": "string",
          "name": "title",
          "type": "string"
        },
        {
          "internalType": "string",
          "name": "desc",
          "type": "string"
        },
        {
          "internalType": "string",
          "name": "startDate",
          "type": "string"
        },
        {
          "internalType": "string",
          "name": "endDate",
          "type": "string"
        },
        {
          "internalType": "string",
          "name": "options",
          "type": "string"
        },
        {
          "internalType": "string",
          "name": "optionValue",
          "type": "string"
        },
        {
          "internalType": "uint256",
          "name": "voteCount",
          "type": "uint256"
        }
      ],
      "stateMutability": "view",
      "type": "function"
    },
    {
      "inputs": [
        {
          "internalType": "uint256",
          "name": "",
          "type": "uint256"
        }
      ],
      "name": "allToken",
      "outputs": [
        {
          "internalType": "uint256",
          "name": "tokenId",
          "type": "uint256"
        },
        {
          "internalType": "address",
          "name": "owner",
          "type": "address"
        },
        {
          "internalType": "string",
          "name": "timeOfCreation",
          "type": "string"
        }
      ],
      "stateMutability": "view",
      "type": "function"
    },
    {
      "inputs": [
        {
          "internalType": "address",
          "name": "",
          "type": "address"
        }
      ],
      "name": "allUser",
      "outputs": [
        {
          "internalType": "address",
          "name": "accountAddress",
          "type": "address"
        },
        {
          "internalType": "string",
          "name": "name",
          "type": "string"
        },
        {
          "internalType": "string",
          "name": "phone",
          "type": "string"
        },
        {
          "internalType": "string",
          "name": "timeOfRegistry",
          "type": "string"
        },
        {
          "internalType": "uint256",
          "name": "tokens",
          "type": "uint256"
        }
      ],
      "stateMutability": "view",
      "type": "function"
    },
    {
      "inputs": [
        {
          "internalType": "uint256",
          "name": "_tokenCount",
          "type": "uint256"
        },
        {
          "internalType": "string",
          "name": "_time",
          "type": "string"
        }
      ],
      "name": "buyToken",
      "outputs": [],
      "stateMutability": "payable",
      "type": "function"
    },
    {
      "inputs": [
        {
          "internalType": "string",
          "name": "_title",
          "type": "string"
        },
        {
          "internalType": "string",
          "name": "_description",
          "type": "string"
        },
        {
          "internalType": "string",
          "name": "_startDate",
          "type": "string"
        },
        {
          "internalType": "string",
          "name": "_endDate",
          "type": "string"
        },
        {
          "internalType": "string",
          "name": "_options",
          "type": "string"
        },
        {
          "internalType": "string",
          "name": "_optionValue",
          "type": "string"
        }
      ],
      "name": "createPoll",
      "outputs": [],
      "stateMutability": "nonpayable",
      "type": "function"
    },
    {
      "inputs": [
        {
          "internalType": "uint256",
          "name": "_pollId",
          "type": "uint256"
        },
        {
          "internalType": "string",
          "name": "_optionValue",
          "type": "string"
        }
      ],
      "name": "makeVote",
      "outputs": [],
      "stateMutability": "nonpayable",
      "type": "function"
    },
    {
      "inputs": [],
      "name": "pollsCounter",
      "outputs": [
        {
          "internalType": "uint256",
          "name": "",
          "type": "uint256"
        }
      ],
      "stateMutability": "view",
      "type": "function"
    },
    {
      "inputs": [],
      "name": "tokenCounter",
      "outputs": [
        {
          "internalType": "uint256",
          "name": "",
          "type": "uint256"
        }
      ],
      "stateMutability": "view",
      "type": "function"
    },
    {
      "inputs": [
        {
          "internalType": "address",
          "name": "",
          "type": "address"
        }
      ],
      "name": "userExist",
      "outputs": [
        {
          "internalType": "bool",
          "name": "",
          "type": "bool"
        }
      ],
      "stateMutability": "view",
      "type": "function"
    },
    {
      "inputs": [],
      "name": "usersCounter",
      "outputs": [
        {
          "internalType": "uint256",
          "name": "",
          "type": "uint256"
        }
      ],
      "stateMutability": "view",
      "type": "function"
    }
  ],
  "bytecode": "0x608060405234801561001057600080fd5b506123fe806100206000396000f3fe60806040526004361061009c5760003560e01c8063925e15ec11610064578063925e15ec1461019557806395c5fed4146101d6578063ab7e7cf6146101ff578063bcd3c5251461023c578063d082e38114610265578063d67b1b99146102905761009c565b806325274a26146100a157806326e122f8146100ca57806348cce63514610109578063637cd874146101345780638e2f2deb14610179575b600080fd5b3480156100ad57600080fd5b506100c860048036038101906100c3919061192a565b6102bb565b005b3480156100d657600080fd5b506100f160048036038101906100ec9190611a95565b610430565b60405161010093929190611b91565b60405180910390f35b34801561011557600080fd5b5061011e610502565b60405161012b9190611bcf565b60405180910390f35b34801561014057600080fd5b5061015b60048036038101906101569190611a95565b610508565b60405161017099989796959493929190611bea565b60405180910390f35b610193600480360381019061018e9190611ca1565b6108a6565b005b3480156101a157600080fd5b506101bc60048036038101906101b79190611d29565b610ca7565b6040516101cd959493929190611d56565b60405180910390f35b3480156101e257600080fd5b506101fd60048036038101906101f89190611dbe565b610e95565b005b34801561020b57600080fd5b5061022660048036038101906102219190611d29565b61105c565b6040516102339190611e80565b60405180910390f35b34801561024857600080fd5b50610263600480360381019061025e9190611ca1565b61107c565b005b34801561027157600080fd5b5061027a6116d2565b6040516102879190611bcf565b60405180910390f35b34801561029c57600080fd5b506102a56116d8565b6040516102b29190611bcf565b60405180910390f35b6000808154809291906102cd90611eca565b9190505550600060405180610120016040528060005481526020013373ffffffffffffffffffffffffffffffffffffffff168152602001888152602001878152602001868152602001858152602001848152602001838152602001600081525090508060036000805481526020019081526020016000206000820151816000015560208201518160010160006101000a81548173ffffffffffffffffffffffffffffffffffffffff021916908373ffffffffffffffffffffffffffffffffffffffff16021790555060408201518160020190816103aa919061211e565b5060608201518160030190816103c0919061211e565b5060808201518160040190816103d6919061211e565b5060a08201518160050190816103ec919061211e565b5060c0820151816006019081610402919061211e565b5060e0820151816007019081610418919061211e565b50610100820151816008015590505050505050505050565b60066020528060005260406000206000915090508060000154908060010160009054906101000a900473ffffffffffffffffffffffffffffffffffffffff169080600201805461047f90611f41565b80601f01602080910402602001604051908101604052809291908181526020018280546104ab90611f41565b80156104f85780601f106104cd576101008083540402835291602001916104f8565b820191906000526020600020905b8154815290600101906020018083116104db57829003601f168201915b5050505050905083565b60005481565b60036020528060005260406000206000915090508060000154908060010160009054906101000a900473ffffffffffffffffffffffffffffffffffffffff169080600201805461055790611f41565b80601f016020809104026020016040519081016040528092919081815260200182805461058390611f41565b80156105d05780601f106105a5576101008083540402835291602001916105d0565b820191906000526020600020905b8154815290600101906020018083116105b357829003601f168201915b5050505050908060030180546105e590611f41565b80601f016020809104026020016040519081016040528092919081815260200182805461061190611f41565b801561065e5780601f106106335761010080835404028352916020019161065e565b820191906000526020600020905b81548152906001019060200180831161064157829003601f168201915b50505050509080600401805461067390611f41565b80601f016020809104026020016040519081016040528092919081815260200182805461069f90611f41565b80156106ec5780601f106106c1576101008083540402835291602001916106ec565b820191906000526020600020905b8154815290600101906020018083116106cf57829003601f168201915b50505050509080600501805461070190611f41565b80601f016020809104026020016040519081016040528092919081815260200182805461072d90611f41565b801561077a5780601f1061074f5761010080835404028352916020019161077a565b820191906000526020600020905b81548152906001019060200180831161075d57829003601f168201915b50505050509080600601805461078f90611f41565b80601f01602080910402602001604051908101604052809291908181526020018280546107bb90611f41565b80156108085780601f106107dd57610100808354040283529160200191610808565b820191906000526020600020905b8154815290600101906020018083116107eb57829003601f168201915b50505050509080600701805461081d90611f41565b80601f016020809104026020016040519081016040528092919081815260200182805461084990611f41565b80156108965780601f1061086b57610100808354040283529160200191610896565b820191906000526020600020905b81548152906001019060200180831161087957829003601f168201915b5050505050908060080154905089565b600073ffffffffffffffffffffffffffffffffffffffff163373ffffffffffffffffffffffffffffffffffffffff16036108df57600080fd5b600460003373ffffffffffffffffffffffffffffffffffffffff1673ffffffffffffffffffffffffffffffffffffffff16815260200190815260200160002060009054906101000a900460ff1661096b576040517f08c379a00000000000000000000000000000000000000000000000000000000081526004016109629061223c565b60405180910390fd5b600a82610978919061228b565b3410156109ba576040517f08c379a00000000000000000000000000000000000000000000000000000000081526004016109b190612308565b60405180910390fd5b600073b641b4f1795a4bfa2cc7056e08cfb2b19983124890508073ffffffffffffffffffffffffffffffffffffffff166108fc349081150290604051600060405180830381858888f19350505050158015610a19573d6000803e3d6000fd5b50610a2483836116de565b6000600560003373ffffffffffffffffffffffffffffffffffffffff1673ffffffffffffffffffffffffffffffffffffffff1681526020019081526020016000206040518060a00160405290816000820160009054906101000a900473ffffffffffffffffffffffffffffffffffffffff1673ffffffffffffffffffffffffffffffffffffffff1673ffffffffffffffffffffffffffffffffffffffff168152602001600182018054610ad690611f41565b80601f0160208091040260200160405190810160405280929190818152602001828054610b0290611f41565b8015610b4f5780601f10610b2457610100808354040283529160200191610b4f565b820191906000526020600020905b815481529060010190602001808311610b3257829003601f168201915b50505050508152602001600282018054610b6890611f41565b80601f0160208091040260200160405190810160405280929190818152602001828054610b9490611f41565b8015610be15780601f10610bb657610100808354040283529160200191610be1565b820191906000526020600020905b815481529060010190602001808311610bc457829003601f168201915b50505050508152602001600382018054610bfa90611f41565b80601f0160208091040260200160405190810160405280929190818152602001828054610c2690611f41565b8015610c735780601f10610c4857610100808354040283529160200191610c73565b820191906000526020600020905b815481529060010190602001808311610c5657829003601f168201915b5050505050815260200160048201548152505090508381608001818151610c9a9190612328565b9150818152505050505050565b60056020528060005260406000206000915090508060000160009054906101000a900473ffffffffffffffffffffffffffffffffffffffff1690806001018054610cf090611f41565b80601f0160208091040260200160405190810160405280929190818152602001828054610d1c90611f41565b8015610d695780601f10610d3e57610100808354040283529160200191610d69565b820191906000526020600020905b815481529060010190602001808311610d4c57829003601f168201915b505050505090806002018054610d7e90611f41565b80601f0160208091040260200160405190810160405280929190818152602001828054610daa90611f41565b8015610df75780601f10610dcc57610100808354040283529160200191610df7565b820191906000526020600020905b815481529060010190602001808311610dda57829003601f168201915b505050505090806003018054610e0c90611f41565b80601f0160208091040260200160405190810160405280929190818152602001828054610e3890611f41565b8015610e855780601f10610e5a57610100808354040283529160200191610e85565b820191906000526020600020905b815481529060010190602001808311610e6857829003601f168201915b5050505050908060040154905085565b600073ffffffffffffffffffffffffffffffffffffffff163373ffffffffffffffffffffffffffffffffffffffff1603610ece57600080fd5b60016000815480929190610ee190611eca565b919050555060006040518060a001604052803373ffffffffffffffffffffffffffffffffffffffff168152602001858152602001848152602001838152602001600a815250905080600560003373ffffffffffffffffffffffffffffffffffffffff1673ffffffffffffffffffffffffffffffffffffffff16815260200190815260200160002060008201518160000160006101000a81548173ffffffffffffffffffffffffffffffffffffffff021916908373ffffffffffffffffffffffffffffffffffffffff1602179055506020820151816001019081610fc4919061211e565b506040820151816002019081610fda919061211e565b506060820151816003019081610ff0919061211e565b50608082015181600401559050506001600460003373ffffffffffffffffffffffffffffffffffffffff1673ffffffffffffffffffffffffffffffffffffffff16815260200190815260200160002060006101000a81548160ff02191690831515021790555050505050565b60046020528060005260406000206000915054906101000a900460ff1681565b600073ffffffffffffffffffffffffffffffffffffffff163373ffffffffffffffffffffffffffffffffffffffff16036110b557600080fd5b600460003373ffffffffffffffffffffffffffffffffffffffff1673ffffffffffffffffffffffffffffffffffffffff16815260200190815260200160002060009054906101000a900460ff16611141576040517f08c379a00000000000000000000000000000000000000000000000000000000081526004016111389061223c565b60405180910390fd5b60006003600084815260200190815260200160002060405180610120016040529081600082015481526020016001820160009054906101000a900473ffffffffffffffffffffffffffffffffffffffff1673ffffffffffffffffffffffffffffffffffffffff1673ffffffffffffffffffffffffffffffffffffffff1681526020016002820180546111d290611f41565b80601f01602080910402602001604051908101604052809291908181526020018280546111fe90611f41565b801561124b5780601f106112205761010080835404028352916020019161124b565b820191906000526020600020905b81548152906001019060200180831161122e57829003601f168201915b5050505050815260200160038201805461126490611f41565b80601f016020809104026020016040519081016040528092919081815260200182805461129090611f41565b80156112dd5780601f106112b2576101008083540402835291602001916112dd565b820191906000526020600020905b8154815290600101906020018083116112c057829003601f168201915b505050505081526020016004820180546112f690611f41565b80601f016020809104026020016040519081016040528092919081815260200182805461132290611f41565b801561136f5780601f106113445761010080835404028352916020019161136f565b820191906000526020600020905b81548152906001019060200180831161135257829003601f168201915b5050505050815260200160058201805461138890611f41565b80601f01602080910402602001604051908101604052809291908181526020018280546113b490611f41565b80156114015780601f106113d657610100808354040283529160200191611401565b820191906000526020600020905b8154815290600101906020018083116113e457829003601f168201915b5050505050815260200160068201805461141a90611f41565b80601f016020809104026020016040519081016040528092919081815260200182805461144690611f41565b80156114935780601f1061146857610100808354040283529160200191611493565b820191906000526020600020905b81548152906001019060200180831161147657829003601f168201915b505050505081526020016007820180546114ac90611f41565b80601f01602080910402602001604051908101604052809291908181526020018280546114d890611f41565b80156115255780601f106114fa57610100808354040283529160200191611525565b820191906000526020600020905b81548152906001019060200180831161150857829003601f168201915b5050505050815260200160088201548152505090506000816020015190503373ffffffffffffffffffffffffffffffffffffffff168173ffffffffffffffffffffffffffffffffffffffff16036115b1576040517f08c379a00000000000000000000000000000000000000000000000000000000081526004016115a8906123a8565b60405180910390fd5b828260e00181905250600182610100018181516115ce9190612328565b9150818152505081600360008681526020019081526020016000206000820151816000015560208201518160010160006101000a81548173ffffffffffffffffffffffffffffffffffffffff021916908373ffffffffffffffffffffffffffffffffffffffff160217905550604082015181600201908161164f919061211e565b506060820151816003019081611665919061211e565b50608082015181600401908161167b919061211e565b5060a0820151816005019081611691919061211e565b5060c08201518160060190816116a7919061211e565b5060e08201518160070190816116bd919061211e565b50610100820151816008015590505050505050565b60025481565b60015481565b60005b8281116117cb57600260008154809291906116fb90611eca565b91905055506000604051806060016040528060025481526020013373ffffffffffffffffffffffffffffffffffffffff168152602001848152509050806006600060025481526020019081526020016000206000820151816000015560208201518160010160006101000a81548173ffffffffffffffffffffffffffffffffffffffff021916908373ffffffffffffffffffffffffffffffffffffffff16021790555060408201518160020190816117b3919061211e565b509050505080806117c390611eca565b9150506116e1565b505050565b6000604051905090565b600080fd5b600080fd5b600080fd5b600080fd5b6000601f19601f8301169050919050565b7f4e487b7100000000000000000000000000000000000000000000000000000000600052604160045260246000fd5b611837826117ee565b810181811067ffffffffffffffff82111715611856576118556117ff565b5b80604052505050565b60006118696117d0565b9050611875828261182e565b919050565b600067ffffffffffffffff821115611895576118946117ff565b5b61189e826117ee565b9050602081019050919050565b82818337600083830152505050565b60006118cd6118c88461187a565b61185f565b9050828152602081018484840111156118e9576118e86117e9565b5b6118f48482856118ab565b509392505050565b600082601f830112611911576119106117e4565b5b81356119218482602086016118ba565b91505092915050565b60008060008060008060c08789031215611947576119466117da565b5b600087013567ffffffffffffffff811115611965576119646117df565b5b61197189828a016118fc565b965050602087013567ffffffffffffffff811115611992576119916117df565b5b61199e89828a016118fc565b955050604087013567ffffffffffffffff8111156119bf576119be6117df565b5b6119cb89828a016118fc565b945050606087013567ffffffffffffffff8111156119ec576119eb6117df565b5b6119f889828a016118fc565b935050608087013567ffffffffffffffff811115611a1957611a186117df565b5b611a2589828a016118fc565b92505060a087013567ffffffffffffffff811115611a4657611a456117df565b5b611a5289828a016118fc565b9150509295509295509295565b6000819050919050565b611a7281611a5f565b8114611a7d57600080fd5b50565b600081359050611a8f81611a69565b92915050565b600060208284031215611aab57611aaa6117da565b5b6000611ab984828501611a80565b91505092915050565b611acb81611a5f565b82525050565b600073ffffffffffffffffffffffffffffffffffffffff82169050919050565b6000611afc82611ad1565b9050919050565b611b0c81611af1565b82525050565b600081519050919050565b600082825260208201905092915050565b60005b83811015611b4c578082015181840152602081019050611b31565b60008484015250505050565b6000611b6382611b12565b611b6d8185611b1d565b9350611b7d818560208601611b2e565b611b86816117ee565b840191505092915050565b6000606082019050611ba66000830186611ac2565b611bb36020830185611b03565b8181036040830152611bc58184611b58565b9050949350505050565b6000602082019050611be46000830184611ac2565b92915050565b600061012082019050611c00600083018c611ac2565b611c0d602083018b611b03565b8181036040830152611c1f818a611b58565b90508181036060830152611c338189611b58565b90508181036080830152611c478188611b58565b905081810360a0830152611c5b8187611b58565b905081810360c0830152611c6f8186611b58565b905081810360e0830152611c838185611b58565b9050611c93610100830184611ac2565b9a9950505050505050505050565b60008060408385031215611cb857611cb76117da565b5b6000611cc685828601611a80565b925050602083013567ffffffffffffffff811115611ce757611ce66117df565b5b611cf3858286016118fc565b9150509250929050565b611d0681611af1565b8114611d1157600080fd5b50565b600081359050611d2381611cfd565b92915050565b600060208284031215611d3f57611d3e6117da565b5b6000611d4d84828501611d14565b91505092915050565b600060a082019050611d6b6000830188611b03565b8181036020830152611d7d8187611b58565b90508181036040830152611d918186611b58565b90508181036060830152611da58185611b58565b9050611db46080830184611ac2565b9695505050505050565b600080600060608486031215611dd757611dd66117da565b5b600084013567ffffffffffffffff811115611df557611df46117df565b5b611e01868287016118fc565b935050602084013567ffffffffffffffff811115611e2257611e216117df565b5b611e2e868287016118fc565b925050604084013567ffffffffffffffff811115611e4f57611e4e6117df565b5b611e5b868287016118fc565b9150509250925092565b60008115159050919050565b611e7a81611e65565b82525050565b6000602082019050611e956000830184611e71565b92915050565b7f4e487b7100000000000000000000000000000000000000000000000000000000600052601160045260246000fd5b6000611ed582611a5f565b91507fffffffffffffffffffffffffffffffffffffffffffffffffffffffffffffffff8203611f0757611f06611e9b565b5b600182019050919050565b7f4e487b7100000000000000000000000000000000000000000000000000000000600052602260045260246000fd5b60006002820490506001821680611f5957607f821691505b602082108103611f6c57611f6b611f12565b5b50919050565b60008190508160005260206000209050919050565b60006020601f8301049050919050565b600082821b905092915050565b600060088302611fd47fffffffffffffffffffffffffffffffffffffffffffffffffffffffffffffffff82611f97565b611fde8683611f97565b95508019841693508086168417925050509392505050565b6000819050919050565b600061201b61201661201184611a5f565b611ff6565b611a5f565b9050919050565b6000819050919050565b61203583612000565b61204961204182612022565b848454611fa4565b825550505050565b600090565b61205e612051565b61206981848461202c565b505050565b5b8181101561208d57612082600082612056565b60018101905061206f565b5050565b601f8211156120d2576120a381611f72565b6120ac84611f87565b810160208510156120bb578190505b6120cf6120c785611f87565b83018261206e565b50505b505050565b600082821c905092915050565b60006120f5600019846008026120d7565b1980831691505092915050565b600061210e83836120e4565b9150826002028217905092915050565b61212782611b12565b67ffffffffffffffff8111156121405761213f6117ff565b5b61214a8254611f41565b612155828285612091565b600060209050601f8311600181146121885760008415612176578287015190505b6121808582612102565b8655506121e8565b601f19841661219686611f72565b60005b828110156121be57848901518255600182019150602085019450602081019050612199565b868310156121db57848901516121d7601f8916826120e4565b8355505b6001600288020188555050505b505050505050565b7f4e6f7420417574686f72697a6564000000000000000000000000000000000000600082015250565b6000612226600e83611b1d565b9150612231826121f0565b602082019050919050565b6000602082019050818103600083015261225581612219565b9050919050565b7f4e487b7100000000000000000000000000000000000000000000000000000000600052601260045260246000fd5b600061229682611a5f565b91506122a183611a5f565b9250826122b1576122b061225c565b5b828204905092915050565b7f4e6f7420656e6f75676820657468657273000000000000000000000000000000600082015250565b60006122f2601183611b1d565b91506122fd826122bc565b602082019050919050565b60006020820190508181036000830152612321816122e5565b9050919050565b600061233382611a5f565b915061233e83611a5f565b925082820190508082111561235657612355611e9b565b5b92915050565b7f43726561746f72206f6620706f6c6c2063616e277420766f7465000000000000600082015250565b6000612392601a83611b1d565b915061239d8261235c565b602082019050919050565b600060208201905081810360008301526123c181612385565b905091905056fea2646970667358221220d0b1629e48972398b5580b9aaf0258039967aeafdcb87c573f37917ac9a7ba2264736f6c63430008110033",
  "linkReferences": {},
  "deployedLinkReferences": {}
}